{
  "contractName": "Rebis",
  "abi": [
    {
      "inputs": [],
      "stateMutability": "nonpayable",
      "type": "constructor"
    },
    {
      "anonymous": false,
      "inputs": [
        {
          "indexed": false,
          "internalType": "uint256",
          "name": "id",
          "type": "uint256"
        },
        {
          "indexed": false,
          "internalType": "address payable",
          "name": "renter",
          "type": "address"
        },
        {
          "indexed": false,
          "internalType": "address",
          "name": "customer",
          "type": "address"
        },
        {
          "indexed": false,
          "internalType": "uint256",
          "name": "fee",
          "type": "uint256"
        },
        {
          "indexed": false,
          "internalType": "uint256",
          "name": "deposit",
          "type": "uint256"
        },
        {
          "indexed": false,
          "internalType": "enum Rebis.states",
          "name": "rentalState",
          "type": "uint8"
        }
      ],
      "name": "BikeRented",
      "type": "event"
    },
    {
      "anonymous": false,
      "inputs": [
        {
          "indexed": false,
          "internalType": "uint256",
          "name": "id",
          "type": "uint256"
        },
        {
          "indexed": false,
          "internalType": "address payable",
          "name": "renter",
          "type": "address"
        },
        {
          "indexed": false,
          "internalType": "address payable",
          "name": "customer",
          "type": "address"
        },
        {
          "indexed": false,
          "internalType": "uint256",
          "name": "fee",
          "type": "uint256"
        },
        {
          "indexed": false,
          "internalType": "uint256",
          "name": "deposit",
          "type": "uint256"
        },
        {
          "indexed": false,
          "internalType": "enum Rebis.states",
          "name": "rentalState",
          "type": "uint8"
        }
      ],
      "name": "RentalCreated",
      "type": "event"
    },
    {
      "anonymous": false,
      "inputs": [
        {
          "indexed": false,
          "internalType": "uint256",
          "name": "id",
          "type": "uint256"
        },
        {
          "indexed": false,
          "internalType": "address",
          "name": "renter",
          "type": "address"
        },
        {
          "indexed": false,
          "internalType": "address payable",
          "name": "customer",
          "type": "address"
        },
        {
          "indexed": false,
          "internalType": "uint256",
          "name": "deposit",
          "type": "uint256"
        },
        {
          "indexed": false,
          "internalType": "enum Rebis.states",
          "name": "rentalState",
          "type": "uint8"
        }
      ],
      "name": "RentalEnded",
      "type": "event"
    },
    {
      "inputs": [],
      "name": "dapp_name",
      "outputs": [
        {
          "internalType": "string",
          "name": "",
          "type": "string"
        }
      ],
      "stateMutability": "view",
      "type": "function",
      "constant": true
    },
    {
      "inputs": [],
      "name": "rentalCounter",
      "outputs": [
        {
          "internalType": "uint256",
          "name": "",
          "type": "uint256"
        }
      ],
      "stateMutability": "view",
      "type": "function",
      "constant": true
    },
    {
      "inputs": [
        {
          "internalType": "uint256",
          "name": "",
          "type": "uint256"
        }
      ],
      "name": "rentals",
      "outputs": [
        {
          "internalType": "uint256",
          "name": "id",
          "type": "uint256"
        },
        {
          "internalType": "address payable",
          "name": "renter",
          "type": "address"
        },
        {
          "internalType": "address payable",
          "name": "customer",
          "type": "address"
        },
        {
          "internalType": "uint256",
          "name": "fee",
          "type": "uint256"
        },
        {
          "internalType": "uint256",
          "name": "deposit",
          "type": "uint256"
        },
        {
          "internalType": "enum Rebis.states",
          "name": "rentalState",
          "type": "uint8"
        }
      ],
      "stateMutability": "view",
      "type": "function",
      "constant": true
    },
    {
      "inputs": [
        {
          "internalType": "uint256",
          "name": "_fee",
          "type": "uint256"
        },
        {
          "internalType": "uint256",
          "name": "_deposit",
          "type": "uint256"
        }
      ],
      "name": "createRental",
      "outputs": [],
      "stateMutability": "nonpayable",
      "type": "function"
    },
    {
      "inputs": [
        {
          "internalType": "uint256",
          "name": "_id",
          "type": "uint256"
        }
      ],
      "name": "rentingCustomer",
      "outputs": [],
      "stateMutability": "payable",
      "type": "function",
      "payable": true
    },
    {
      "inputs": [
        {
          "internalType": "uint256",
          "name": "_id",
          "type": "uint256"
        }
      ],
      "name": "depositWarranty",
      "outputs": [],
      "stateMutability": "payable",
      "type": "function",
      "payable": true
    },
    {
      "inputs": [
        {
          "internalType": "uint256",
          "name": "_id",
          "type": "uint256"
        }
      ],
      "name": "endOfRental",
      "outputs": [],
      "stateMutability": "payable",
      "type": "function",
      "payable": true
    },
    {
      "inputs": [],
      "name": "rentalsDeployed",
      "outputs": [
        {
          "internalType": "uint256",
          "name": "",
          "type": "uint256"
        }
      ],
      "stateMutability": "view",
      "type": "function",
      "constant": true
    }
  ],
  "bytecode": "0x608060405260006001556000600260006101000a81548160ff0219169083151502179055506000600260016101000a81548160ff02191690831515021790555034801561004b57600080fd5b506040518060400160405280600581526020017f52656269730000000000000000000000000000000000000000000000000000008152506000908051906020019061009792919061009d565b5061013a565b828054600181600116156101000203166002900490600052602060002090601f016020900481019282601f106100de57805160ff191683800117855561010c565b8280016001018555821561010c579182015b8281111561010b5782518255916020019190600101906100f0565b5b509050610119919061011d565b5090565b5b8082111561013657600081600090555060010161011e565b5090565b610f82806101496000396000f3fe60806040526004361061007b5760003560e01c8063714576061161004e5780637145760614610135578063af94a1d114610160578063b3ea346b14610209578063d12e8d51146102995761007b565b806315c23d1e1461008057806328d454f5146100ae5780633ddb446e146100d9578063604cef9c14610107575b600080fd5b6100ac6004803603602081101561009657600080fd5b81019080803590602001909291905050506102de565b005b3480156100ba57600080fd5b506100c361067f565b6040518082815260200191505060405180910390f35b610105600480360360208110156100ef57600080fd5b8101908080359060200190929190505050610685565b005b6101336004803603602081101561011d57600080fd5b81019080803590602001909291905050506109d7565b005b34801561014157600080fd5b5061014a610b9c565b6040518082815260200191505060405180910390f35b34801561016c57600080fd5b506101996004803603602081101561018357600080fd5b8101908080359060200190929190505050610ba6565b604051808781526020018673ffffffffffffffffffffffffffffffffffffffff1681526020018573ffffffffffffffffffffffffffffffffffffffff1681526020018481526020018381526020018260028111156101f357fe5b8152602001965050505050505060405180910390f35b34801561021557600080fd5b5061021e610c2f565b6040518080602001828103825283818151815260200191508051906020019080838360005b8381101561025e578082015181840152602081019050610243565b50505050905090810190601f16801561028b5780820380516001836020036101000a031916815260200191505b509250505060405180910390f35b3480156102a557600080fd5b506102dc600480360360408110156102bc57600080fd5b810190808035906020019092919080359060200190929190505050610ccd565b005b600260009054906101000a900460ff16156102f857600080fd5b60008111801561030a57506001548111155b61031357600080fd5b61031b610edf565b600360008381526020019081526020016000206040518060c0016040529081600082015481526020016001820160009054906101000a900473ffffffffffffffffffffffffffffffffffffffff1673ffffffffffffffffffffffffffffffffffffffff1673ffffffffffffffffffffffffffffffffffffffff1681526020016002820160009054906101000a900473ffffffffffffffffffffffffffffffffffffffff1673ffffffffffffffffffffffffffffffffffffffff1673ffffffffffffffffffffffffffffffffffffffff16815260200160038201548152602001600482015481526020016005820160009054906101000a900460ff16600281111561042157fe5b600281111561042c57fe5b8152505090503373ffffffffffffffffffffffffffffffffffffffff16816040015173ffffffffffffffffffffffffffffffffffffffff16141561046f57600080fd5b336003600084815260200190815260200160002060020160006101000a81548173ffffffffffffffffffffffffffffffffffffffff021916908373ffffffffffffffffffffffffffffffffffffffff160217905550600081608001518260600151019050803373ffffffffffffffffffffffffffffffffffffffff163110156104f757600080fd5b6000600281111561050457fe5b8260a00151600281111561051457fe5b1461051e57600080fd5b6001600260006101000a81548160ff021916908315150217905550816020015173ffffffffffffffffffffffffffffffffffffffff166108fc349081150290604051600060405180830381858888f19350505050158015610583573d6000803e3d6000fd5b5060016003600085815260200190815260200160002060050160006101000a81548160ff021916908360028111156105b757fe5b02179055506000600260006101000a81548160ff0219169083151502179055507f69b42eff8279acbf254c29abaf12c83fa5c8dcd87a4eaf1a6ceabee5dffcca0a83836020015133856060015186608001516001604051808781526020018673ffffffffffffffffffffffffffffffffffffffff1681526020018573ffffffffffffffffffffffffffffffffffffffff16815260200184815260200183815260200182600281111561066557fe5b8152602001965050505050505060405180910390a1505050565b60015481565b600260019054906101000a900460ff161561069f57600080fd5b6000811180156106b157506001548111155b6106ba57600080fd5b6106c2610edf565b600360008381526020019081526020016000206040518060c0016040529081600082015481526020016001820160009054906101000a900473ffffffffffffffffffffffffffffffffffffffff1673ffffffffffffffffffffffffffffffffffffffff1673ffffffffffffffffffffffffffffffffffffffff1681526020016002820160009054906101000a900473ffffffffffffffffffffffffffffffffffffffff1673ffffffffffffffffffffffffffffffffffffffff1673ffffffffffffffffffffffffffffffffffffffff16815260200160038201548152602001600482015481526020016005820160009054906101000a900460ff1660028111156107c857fe5b60028111156107d357fe5b815250509050600160028111156107e657fe5b8160a0015160028111156107f657fe5b1461080057600080fd5b806020015173ffffffffffffffffffffffffffffffffffffffff163373ffffffffffffffffffffffffffffffffffffffff161461083c57600080fd5b80608001513373ffffffffffffffffffffffffffffffffffffffff1631101561086457600080fd5b6001600260016101000a81548160ff0219169083151502179055506000341415801561089557506000816080015114155b156108e657806040015173ffffffffffffffffffffffffffffffffffffffff166108fc349081150290604051600060405180830381858888f193505050501580156108e4573d6000803e3d6000fd5b505b60026003600084815260200190815260200160002060050160006101000a81548160ff0219169083600281111561091957fe5b02179055506000600260016101000a81548160ff0219169083151502179055507f110ab645e29fd374deffcf01c68c8a46e7505f0650bf04649bc335f47d7e21dd8233836040015184608001518560a00151604051808681526020018573ffffffffffffffffffffffffffffffffffffffff1681526020018473ffffffffffffffffffffffffffffffffffffffff1681526020018381526020018260028111156109bf57fe5b81526020019550505050505060405180910390a15050565b6000811180156109e957506001548111155b6109f257600080fd5b6109fa610edf565b600360008381526020019081526020016000206040518060c0016040529081600082015481526020016001820160009054906101000a900473ffffffffffffffffffffffffffffffffffffffff1673ffffffffffffffffffffffffffffffffffffffff1673ffffffffffffffffffffffffffffffffffffffff1681526020016002820160009054906101000a900473ffffffffffffffffffffffffffffffffffffffff1673ffffffffffffffffffffffffffffffffffffffff1673ffffffffffffffffffffffffffffffffffffffff16815260200160038201548152602001600482015481526020016005820160009054906101000a900460ff166002811115610b0057fe5b6002811115610b0b57fe5b815250509050600034148015610b2657506000816080015114155b15610b4c5760006003600084815260200190815260200160002060040181905550610b98565b806020015173ffffffffffffffffffffffffffffffffffffffff166108fc349081150290604051600060405180830381858888f19350505050158015610b96573d6000803e3d6000fd5b505b5050565b6000600154905090565b60036020528060005260406000206000915090508060000154908060010160009054906101000a900473ffffffffffffffffffffffffffffffffffffffff16908060020160009054906101000a900473ffffffffffffffffffffffffffffffffffffffff16908060030154908060040154908060050160009054906101000a900460ff16905086565b60008054600181600116156101000203166002900480601f016020809104026020016040519081016040528092919081815260200182805460018160011615610100020316600290048015610cc55780601f10610c9a57610100808354040283529160200191610cc5565b820191906000526020600020905b815481529060010190602001808311610ca857829003601f168201915b505050505081565b60008211610cda57600080fd5b6001600081548092919060010191905055506040518060c0016040528060015481526020013373ffffffffffffffffffffffffffffffffffffffff168152602001600073ffffffffffffffffffffffffffffffffffffffff16815260200183815260200182815260200160006002811115610d5157fe5b8152506003600060015481526020019081526020016000206000820151816000015560208201518160010160006101000a81548173ffffffffffffffffffffffffffffffffffffffff021916908373ffffffffffffffffffffffffffffffffffffffff16021790555060408201518160020160006101000a81548173ffffffffffffffffffffffffffffffffffffffff021916908373ffffffffffffffffffffffffffffffffffffffff160217905550606082015181600301556080820151816004015560a08201518160050160006101000a81548160ff02191690836002811115610e3957fe5b02179055509050507fa2ee025f523b8744eb705f567b6ecf744432d4412e2cbe40d594b5ceaead3d1c60015433600085856000604051808781526020018673ffffffffffffffffffffffffffffffffffffffff1681526020018573ffffffffffffffffffffffffffffffffffffffff168152602001848152602001838152602001826002811115610ec657fe5b8152602001965050505050505060405180910390a15050565b6040518060c0016040528060008152602001600073ffffffffffffffffffffffffffffffffffffffff168152602001600073ffffffffffffffffffffffffffffffffffffffff168152602001600081526020016000815260200160006002811115610f4657fe5b8152509056fea2646970667358221220f56d460441e5c50300ef9d7de66195bdbdf1d0e5d37fc898202104863e04e7a764736f6c63430007030033",
  "immutableReferences": {},
  "source": "// SPDX-License-Identifier: UNLICENSED\r\npragma solidity ^0.7.0;\r\n\r\ncontract Rebis {\r\n  string public dapp_name;\r\n  uint public rentalCounter = 0;\r\n  enum states {PENDING, RENTED, ENDED}\r\n  bool reEntrancyMutex1 = false;\r\n  bool reEntrancyMutex2 = false;\r\n\r\n  mapping(uint => Rental) public rentals;\r\n\r\n  constructor() {\r\n      dapp_name = \"Rebis\";\r\n\r\n  }\r\n\r\n  struct Rental {\r\n    uint id;\r\n    address payable renter;\r\n    address payable customer;\r\n    uint fee;\r\n    uint deposit;\r\n    states rentalState;\r\n  }\r\n\r\n  event RentalCreated(\r\n    uint id,\r\n    address payable renter,\r\n    address payable customer,\r\n    uint fee,\r\n    uint deposit,\r\n    states rentalState\r\n  );\r\n\r\n  event BikeRented(\r\n    uint id,\r\n    address payable renter,\r\n    address customer,\r\n    uint fee,\r\n    uint deposit,\r\n    states rentalState\r\n  );\r\n\r\n  event RentalEnded(\r\n    uint id,\r\n    address renter,\r\n    address payable customer,\r\n    uint deposit,\r\n    states rentalState\r\n  );\r\n\r\n  function createRental(uint _fee, uint _deposit) public {\r\n    //set a condition, can't have free rentals\r\n    require (_fee > 0);\r\n    //increment number of rentals, which is also the id\r\n    rentalCounter++;\r\n    //create a new rental\r\n    rentals[rentalCounter] = Rental(rentalCounter, msg.sender, address(0), _fee, _deposit, states.PENDING);\r\n    //trigger event\r\n    emit RentalCreated(rentalCounter, msg.sender, address(0), _fee, _deposit, states.PENDING);\r\n  }\r\n\r\n  function rentingCustomer(uint _id) public payable {\r\n    //check the mutex for reentrancy\r\n    require(!reEntrancyMutex1);\r\n    //target rental must exist\r\n    require(_id> 0 && _id<= rentalCounter);\r\n    //get the target rental\r\n    Rental memory _rental = rentals[_id];\r\n    require(_rental.customer != msg.sender);\r\n    //now we can instantiate the customer\r\n    rentals[_id].customer = msg.sender;\r\n    //customer must have enough money\r\n    uint totalAmount = _rental.fee + _rental.deposit;\r\n    require (msg.sender.balance >= totalAmount);\r\n    require(_rental.rentalState == states.PENDING);\r\n    //avoid re-entrancy\r\n    reEntrancyMutex1 = true;\r\n    //transfer eth\r\n    _rental.renter.transfer(msg.value);\r\n    rentals[_id].rentalState = states.RENTED;\r\n    //release the reEntrancyMutex1\r\n    reEntrancyMutex1 = false;\r\n    //trigger event\r\n    emit BikeRented(_id, _rental.renter, msg.sender, _rental.fee, _rental.deposit, states.RENTED);\r\n  }\r\n\r\n  function depositWarranty(uint _id) public payable {\r\n    //target rental must exist\r\n    require(_id> 0 && _id<= rentalCounter);\r\n    //get the target rental\r\n    Rental memory _rental = rentals[_id];\r\n    //transfer eth\r\n    if (msg.value == 0 && _rental.deposit != 0) {\r\n      rentals[_id].deposit = 0;\r\n    } else {\r\n      _rental.renter.transfer(msg.value);\r\n    }\r\n  }\r\n\r\n  function endOfRental(uint _id) public payable {\r\n    //check the mutex for reentrancy\r\n    require(!reEntrancyMutex2);\r\n    //target rental must exist\r\n    require(_id> 0 && _id<= rentalCounter);\r\n    //get the target rental\r\n    Rental memory _rental = rentals[_id];\r\n    require(_rental.rentalState == states.RENTED);\r\n    //return deposit\r\n    require(msg.sender == _rental.renter);\r\n    require (msg.sender.balance >= _rental.deposit);\r\n    //avoid re-entrancy\r\n    reEntrancyMutex2 = true;\r\n    //trasnfer eth\r\n    if (msg.value != 0 && _rental.deposit != 0) {\r\n      _rental.customer.transfer(msg.value);\r\n    }\r\n    //rental ends\r\n    rentals[_id].rentalState = states.ENDED;\r\n    //release the reEntrancyMutex2\r\n    reEntrancyMutex2 = false;\r\n    //trigger event\r\n    emit RentalEnded(_id, msg.sender, _rental.customer, _rental.deposit, _rental.rentalState);\r\n  }\r\n\r\n  function rentalsDeployed() public view returns(uint) {\r\n    return rentalCounter;\r\n  }\r\n\r\n}\r\n",
  "sourcePath": "C:/Users/hew580105nl/Desktop/Tirocinio/Source/RestAPI/blockchain/contracts/Rebis.sol",
  "compiler": {
    "name": "solc",
    "version": "0.7.3+commit.9bfce1f6.Emscripten.clang"
  },
  "schemaVersion": "3.3.1",
  "updatedAt": "2021-01-03T17:25:29.769Z",
  "networkType": "ethereum",
  "devdoc": {
    "kind": "dev",
    "methods": {},
    "version": 1
  },
  "userdoc": {
    "kind": "user",
    "methods": {},
    "version": 1
  }
}