{
  "contractName": "Rebis",
  "abi": [
    {
      "inputs": [],
      "stateMutability": "nonpayable",
      "type": "constructor"
    },
    {
      "stateMutability": "payable",
      "type": "fallback",
      "payable": true
    },
    {
      "inputs": [],
      "name": "dapp_name",
      "outputs": [
        {
          "internalType": "string",
          "name": "",
          "type": "string"
        }
      ],
      "stateMutability": "view",
      "type": "function",
      "constant": true
    },
    {
      "inputs": [],
      "name": "rentalCounter",
      "outputs": [
        {
          "internalType": "uint256",
          "name": "",
          "type": "uint256"
        }
      ],
      "stateMutability": "view",
      "type": "function",
      "constant": true
    },
    {
      "inputs": [
        {
          "internalType": "uint256",
          "name": "",
          "type": "uint256"
        }
      ],
      "name": "rentals",
      "outputs": [
        {
          "internalType": "uint256",
          "name": "id",
          "type": "uint256"
        },
        {
          "internalType": "address payable",
          "name": "renter",
          "type": "address"
        },
        {
          "internalType": "address payable",
          "name": "customer",
          "type": "address"
        },
        {
          "internalType": "uint256",
          "name": "fee",
          "type": "uint256"
        },
        {
          "internalType": "uint256",
          "name": "deposit",
          "type": "uint256"
        },
        {
          "internalType": "enum Rebis.states",
          "name": "rentalState",
          "type": "uint8"
        }
      ],
      "stateMutability": "view",
      "type": "function",
      "constant": true
    },
    {
      "stateMutability": "payable",
      "type": "receive",
      "payable": true
    },
    {
      "inputs": [
        {
          "internalType": "uint256",
          "name": "_fee",
          "type": "uint256"
        },
        {
          "internalType": "uint256",
          "name": "_deposit",
          "type": "uint256"
        },
        {
          "internalType": "address payable",
          "name": "_renter",
          "type": "address"
        },
        {
          "internalType": "uint256",
          "name": "_id",
          "type": "uint256"
        }
      ],
      "name": "createRental",
      "outputs": [],
      "stateMutability": "nonpayable",
      "type": "function"
    },
    {
      "inputs": [
        {
          "internalType": "uint256",
          "name": "_id",
          "type": "uint256"
        },
        {
          "internalType": "address payable",
          "name": "_customer",
          "type": "address"
        }
      ],
      "name": "rentingCustomer",
      "outputs": [],
      "stateMutability": "payable",
      "type": "function",
      "payable": true
    },
    {
      "inputs": [
        {
          "internalType": "uint256",
          "name": "_id",
          "type": "uint256"
        }
      ],
      "name": "depositWarranty",
      "outputs": [],
      "stateMutability": "payable",
      "type": "function",
      "payable": true
    },
    {
      "inputs": [
        {
          "internalType": "uint256",
          "name": "_id",
          "type": "uint256"
        }
      ],
      "name": "endOfRental",
      "outputs": [],
      "stateMutability": "payable",
      "type": "function",
      "payable": true
    },
    {
      "inputs": [],
      "name": "rentalsDeployed",
      "outputs": [
        {
          "internalType": "uint256",
          "name": "",
          "type": "uint256"
        }
      ],
      "stateMutability": "view",
      "type": "function",
      "constant": true
    },
    {
      "inputs": [
        {
          "internalType": "uint256",
          "name": "amount",
          "type": "uint256"
        }
      ],
      "name": "withdraw",
      "outputs": [
        {
          "internalType": "bool",
          "name": "",
          "type": "bool"
        }
      ],
      "stateMutability": "nonpayable",
      "type": "function"
    }
  ],
  "bytecode": "0x608060405260006001556000600260006101000a81548160ff0219169083151502179055506000600260016101000a81548160ff0219169083151502179055503480156200004c57600080fd5b506040518060400160405280600581526020017f5265626973000000000000000000000000000000000000000000000000000000815250600090805190602001906200009a929190620000e1565b50336002806101000a81548173ffffffffffffffffffffffffffffffffffffffff021916908373ffffffffffffffffffffffffffffffffffffffff160217905550620001f6565b828054620000ef9062000191565b90600052602060002090601f0160209004810192826200011357600085556200015f565b82601f106200012e57805160ff19168380011785556200015f565b828001600101855582156200015f579182015b828111156200015e57825182559160200191906001019062000141565b5b5090506200016e919062000172565b5090565b5b808211156200018d57600081600090555060010162000173565b5090565b60006002820490506001821680620001aa57607f821691505b60208210811415620001c157620001c0620001c7565b5b50919050565b7f4e487b7100000000000000000000000000000000000000000000000000000000600052602260045260246000fd5b61180180620002066000396000f3fe60806040526004361061008a5760003560e01c8063604cef9c11610059578063604cef9c14610140578063714576061461015c578063af94a1d114610187578063b3ea346b146101c9578063e0a02d9e146101f45761009e565b8063024a76d3146100a057806328d454f5146100bc5780632e1a7d4d146100e75780633ddb446e146101245761009e565b3661009e576000341161009c57600080fd5b005b005b6100ba60048036038101906100b59190610fc5565b61021d565b005b3480156100c857600080fd5b506100d16105fd565b6040516100de9190611371565b60405180910390f35b3480156100f357600080fd5b5061010e60048036038101906101099190610f9c565b610603565b60405161011b9190611214565b60405180910390f35b61013e60048036038101906101399190610f9c565b6106da565b005b61015a60048036038101906101559190610f9c565b610ac5565b005b34801561016857600080fd5b50610171610ba0565b60405161017e9190611371565b60405180910390f35b34801561019357600080fd5b506101ae60048036038101906101a99190610f9c565b610baa565b6040516101c09695949392919061138c565b60405180910390f35b3480156101d557600080fd5b506101de610c33565b6040516101eb919061122f565b60405180910390f35b34801561020057600080fd5b5061021b60048036038101906102169190611001565b610cc1565b005b600260009054906101000a900460ff161561026d576040517f08c379a0000000000000000000000000000000000000000000000000000000008152600401610264906112b1565b60405180910390fd5b6000821161027a57600080fd5b3373ffffffffffffffffffffffffffffffffffffffff166003600084815260200190815260200160002060020160009054906101000a900473ffffffffffffffffffffffffffffffffffffffff1673ffffffffffffffffffffffffffffffffffffffff16141561031f576040517f08c379a000000000000000000000000000000000000000000000000000000000815260040161031690611331565b60405180910390fd5b806003600084815260200190815260200160002060020160006101000a81548173ffffffffffffffffffffffffffffffffffffffff021916908373ffffffffffffffffffffffffffffffffffffffff1602179055506000600360008481526020019081526020016000206004015460036000858152602001908152602001600020600301546103ae9190611409565b9050803373ffffffffffffffffffffffffffffffffffffffff1631101561040a576040517f08c379a0000000000000000000000000000000000000000000000000000000008152600401610401906112f1565b60405180910390fd5b60006002811115610444577f4e487b7100000000000000000000000000000000000000000000000000000000600052602160045260246000fd5b6003600085815260200190815260200160002060050160009054906101000a900460ff1660028111156104a0577f4e487b7100000000000000000000000000000000000000000000000000000000600052602160045260246000fd5b146104e0576040517f08c379a00000000000000000000000000000000000000000000000000000000081526004016104d7906112d1565b60405180910390fd5b6001600260006101000a81548160ff0219169083151502179055506003600084815260200190815260200160002060010160009054906101000a900473ffffffffffffffffffffffffffffffffffffffff1673ffffffffffffffffffffffffffffffffffffffff166108fc349081150290604051600060405180830381858888f19350505050158015610577573d6000803e3d6000fd5b5060016003600085815260200190815260200160002060050160006101000a81548160ff021916908360028111156105d8577f4e487b7100000000000000000000000000000000000000000000000000000000600052602160045260246000fd5b02179055506000600260006101000a81548160ff021916908315150217905550505050565b60015481565b600060028054906101000a900473ffffffffffffffffffffffffffffffffffffffff1673ffffffffffffffffffffffffffffffffffffffff163373ffffffffffffffffffffffffffffffffffffffff161461065d57600080fd5b4782111561066a57600080fd5b60028054906101000a900473ffffffffffffffffffffffffffffffffffffffff1673ffffffffffffffffffffffffffffffffffffffff166108fc839081150290604051600060405180830381858888f193505050501580156106d0573d6000803e3d6000fd5b5060019050919050565b600260019054906101000a900460ff161561072a576040517f08c379a000000000000000000000000000000000000000000000000000000000815260040161072190611271565b60405180910390fd5b6000811161073757600080fd5b6000600360008381526020019081526020016000206040518060c0016040529081600082015481526020016001820160009054906101000a900473ffffffffffffffffffffffffffffffffffffffff1673ffffffffffffffffffffffffffffffffffffffff1673ffffffffffffffffffffffffffffffffffffffff1681526020016002820160009054906101000a900473ffffffffffffffffffffffffffffffffffffffff1673ffffffffffffffffffffffffffffffffffffffff1673ffffffffffffffffffffffffffffffffffffffff16815260200160038201548152602001600482015481526020016005820160009054906101000a900460ff16600281111561086c577f4e487b7100000000000000000000000000000000000000000000000000000000600052602160045260246000fd5b60028111156108a4577f4e487b7100000000000000000000000000000000000000000000000000000000600052602160045260246000fd5b815250509050600160028111156108e4577f4e487b7100000000000000000000000000000000000000000000000000000000600052602160045260246000fd5b8160a001516002811115610921577f4e487b7100000000000000000000000000000000000000000000000000000000600052602160045260246000fd5b14610961576040517f08c379a000000000000000000000000000000000000000000000000000000000815260040161095890611251565b60405180910390fd5b80608001513373ffffffffffffffffffffffffffffffffffffffff163110156109bf576040517f08c379a00000000000000000000000000000000000000000000000000000000081526004016109b690611351565b60405180910390fd5b6001600260016101000a81548160ff021916908315150217905550600034141580156109f057506000816080015114155b15610a4157806040015173ffffffffffffffffffffffffffffffffffffffff166108fc349081150290604051600060405180830381858888f19350505050158015610a3f573d6000803e3d6000fd5b505b60026003600084815260200190815260200160002060050160006101000a81548160ff02191690836002811115610aa1577f4e487b7100000000000000000000000000000000000000000000000000000000600052602160045260246000fd5b02179055506000600260016101000a81548160ff0219169083151502179055505050565b60008111610ad257600080fd5b600034148015610af957506000600360008381526020019081526020016000206004015414155b15610b1f5760006003600083815260200190815260200160002060040181905550610b9d565b6003600082815260200190815260200160002060010160009054906101000a900473ffffffffffffffffffffffffffffffffffffffff1673ffffffffffffffffffffffffffffffffffffffff166108fc349081150290604051600060405180830381858888f19350505050158015610b9b573d6000803e3d6000fd5b505b50565b6000600154905090565b60036020528060005260406000206000915090508060000154908060010160009054906101000a900473ffffffffffffffffffffffffffffffffffffffff16908060020160009054906101000a900473ffffffffffffffffffffffffffffffffffffffff16908060030154908060040154908060050160009054906101000a900460ff16905086565b60008054610c40906114ff565b80601f0160208091040260200160405190810160405280929190818152602001828054610c6c906114ff565b8015610cb95780601f10610c8e57610100808354040283529160200191610cb9565b820191906000526020600020905b815481529060010190602001808311610c9c57829003601f168201915b505050505081565b60008411610d04576040517f08c379a0000000000000000000000000000000000000000000000000000000008152600401610cfb90611291565b60405180910390fd5b600073ffffffffffffffffffffffffffffffffffffffff166003600083815260200190815260200160002060010160009054906101000a900473ffffffffffffffffffffffffffffffffffffffff1673ffffffffffffffffffffffffffffffffffffffff1614610da9576040517f08c379a0000000000000000000000000000000000000000000000000000000008152600401610da090611311565b60405180910390fd5b60016000815480929190610dbc90611531565b91905055506040518060c001604052808281526020018373ffffffffffffffffffffffffffffffffffffffff168152602001600073ffffffffffffffffffffffffffffffffffffffff16815260200185815260200184815260200160006002811115610e51577f4e487b7100000000000000000000000000000000000000000000000000000000600052602160045260246000fd5b815250600360008381526020019081526020016000206000820151816000015560208201518160010160006101000a81548173ffffffffffffffffffffffffffffffffffffffff021916908373ffffffffffffffffffffffffffffffffffffffff16021790555060408201518160020160006101000a81548173ffffffffffffffffffffffffffffffffffffffff021916908373ffffffffffffffffffffffffffffffffffffffff160217905550606082015181600301556080820151816004015560a08201518160050160006101000a81548160ff02191690836002811115610f64577f4e487b7100000000000000000000000000000000000000000000000000000000600052602160045260246000fd5b021790555090505050505050565b600081359050610f818161179d565b92915050565b600081359050610f96816117b4565b92915050565b600060208284031215610fae57600080fd5b6000610fbc84828501610f87565b91505092915050565b60008060408385031215610fd857600080fd5b6000610fe685828601610f87565b9250506020610ff785828601610f72565b9150509250929050565b6000806000806080858703121561101757600080fd5b600061102587828801610f87565b945050602061103687828801610f87565b935050604061104787828801610f72565b925050606061105887828801610f87565b91505092959194509250565b61106d8161145f565b82525050565b61107c81611471565b82525050565b61108b816114ba565b82525050565b600061109c826113ed565b6110a681856113f8565b93506110b68185602086016114cc565b6110bf81611607565b840191505092915050565b60006110d76017836113f8565b91506110e282611618565b602082019050919050565b60006110fa6013836113f8565b915061110582611641565b602082019050919050565b600061111d601b836113f8565b91506111288261166a565b602082019050919050565b60006111406013836113f8565b915061114b82611693565b602082019050919050565b60006111636014836113f8565b915061116e826116bc565b602082019050919050565b60006111866019836113f8565b9150611191826116e5565b602082019050919050565b60006111a96013836113f8565b91506111b48261170e565b602082019050919050565b60006111cc601a836113f8565b91506111d782611737565b602082019050919050565b60006111ef6015836113f8565b91506111fa82611760565b602082019050919050565b61120e816114b0565b82525050565b60006020820190506112296000830184611073565b92915050565b600060208201905081810360008301526112498184611091565b905092915050565b6000602082019050818103600083015261126a816110ca565b9050919050565b6000602082019050818103600083015261128a816110ed565b9050919050565b600060208201905081810360008301526112aa81611110565b9050919050565b600060208201905081810360008301526112ca81611133565b9050919050565b600060208201905081810360008301526112ea81611156565b9050919050565b6000602082019050818103600083015261130a81611179565b9050919050565b6000602082019050818103600083015261132a8161119c565b9050919050565b6000602082019050818103600083015261134a816111bf565b9050919050565b6000602082019050818103600083015261136a816111e2565b9050919050565b60006020820190506113866000830184611205565b92915050565b600060c0820190506113a16000830189611205565b6113ae6020830188611064565b6113bb6040830187611064565b6113c86060830186611205565b6113d56080830185611205565b6113e260a0830184611082565b979650505050505050565b600081519050919050565b600082825260208201905092915050565b6000611414826114b0565b915061141f836114b0565b9250827fffffffffffffffffffffffffffffffffffffffffffffffffffffffffffffffff038211156114545761145361157a565b5b828201905092915050565b600061146a82611490565b9050919050565b60008115159050919050565b600081905061148b82611789565b919050565b600073ffffffffffffffffffffffffffffffffffffffff82169050919050565b6000819050919050565b60006114c58261147d565b9050919050565b60005b838110156114ea5780820151818401526020810190506114cf565b838111156114f9576000848401525b50505050565b6000600282049050600182168061151757607f821691505b6020821081141561152b5761152a6115d8565b5b50919050565b600061153c826114b0565b91507fffffffffffffffffffffffffffffffffffffffffffffffffffffffffffffffff82141561156f5761156e61157a565b5b600182019050919050565b7f4e487b7100000000000000000000000000000000000000000000000000000000600052601160045260246000fd5b7f4e487b7100000000000000000000000000000000000000000000000000000000600052602160045260246000fd5b7f4e487b7100000000000000000000000000000000000000000000000000000000600052602260045260246000fd5b6000601f19601f8301169050919050565b7f456e643a207374617465206e6f74206d61746368696e67000000000000000000600082015250565b7f4d75746578206e6f7420617661696c61626c6500000000000000000000000000600082015250565b7f5472616e73616374696f6e2063616e206e6f7420626520766f69640000000000600082015250565b7f4d75746578206d7573742062652066616c736500000000000000000000000000600082015250565b7f5374617465206973206e6f7420636f7272656374000000000000000000000000600082015250565b7f4e6f7420656e6f7567682045544820696e2062616c616e636500000000000000600082015250565b7f494420616c7265616479206578697374696e6700000000000000000000000000600082015250565b7f437573746f6d657220657175616c73207468652073656e646572000000000000600082015250565b7f456e643a206e6f7420656e6f7567682066756e64730000000000000000000000600082015250565b6003811061179a576117996115a9565b5b50565b6117a68161145f565b81146117b157600080fd5b50565b6117bd816114b0565b81146117c857600080fd5b5056fea2646970667358221220a74c5ad5d4f887d8b598b45047cb8348963c6785cb4fb37798da7e8d7bac429664736f6c63430008010033",
  "immutableReferences": {},
  "source": "// SPDX-License-Identifier: UNLICENSED\r\npragma solidity ^0.8.1;\r\n\r\ncontract Rebis {\r\n  string public dapp_name;\r\n  uint public rentalCounter = 0;\r\n  enum states {PENDING, RENTED, ENDED}\r\n  bool reEntrancyMutex1 = false;\r\n  bool reEntrancyMutex2 = false;\r\n  address payable owner;\r\n\r\n  mapping(uint => Rental) public rentals;\r\n\r\n  modifier onlyOwner() {\r\n    require (msg.sender == owner);\r\n    _;\r\n  }\r\n\r\n  constructor() {\r\n      dapp_name = \"Rebis\";\r\n      owner = payable(msg.sender);\r\n  }\r\n\r\n  struct Rental {\r\n    uint id;\r\n    address payable renter;\r\n    address payable customer;\r\n    uint fee;\r\n    uint deposit;\r\n    states rentalState;\r\n  }\r\n\r\n  function createRental(uint _fee, uint _deposit, address payable _renter, uint _id) public {\r\n    //set a condition, can't have free rentals\r\n    require (_fee > 0, \"Transaction can not be void\");\r\n    require(rentals[_id].renter == address(0x0), \"ID already existing\");\r\n    //increment number of rentals, which is also the id\r\n    rentalCounter++;\r\n    //create a new rental\r\n    rentals[_id] = Rental(_id, _renter, payable(address(0)), _fee, _deposit, states.PENDING);\r\n  }\r\n\r\n  function rentingCustomer(uint _id, address payable _customer) public payable {\r\n    //check the mutex for reentrancy\r\n    require(!reEntrancyMutex1, \"Mutex must be false\");\r\n    //target rental must exist\r\n    require(_id> 0); //&& _id<= rentalCounter, \"RentalID is out of bound\");\r\n    require(rentals[_id].customer != msg.sender, \"Customer equals the sender\");\r\n    //now we can instantiate the customer\r\n    rentals[_id].customer = _customer;\r\n    //customer must have enough money\r\n    uint totalAmount = rentals[_id].fee + rentals[_id].deposit;\r\n    require (msg.sender.balance >= totalAmount, \"Not enough ETH in balance\");\r\n    require(rentals[_id].rentalState == states.PENDING, \"State is not correct\");\r\n    //avoid re-entrancy\r\n    reEntrancyMutex1 = true;\r\n    //transfer eth\r\n    rentals[_id].renter.transfer(msg.value);\r\n    rentals[_id].rentalState = states.RENTED;\r\n    //release the reEntrancyMutex1\r\n    reEntrancyMutex1 = false;\r\n  }\r\n\r\n  function depositWarranty(uint _id) public payable {\r\n    //target rental must exist\r\n    require(_id> 0); //&& _id<= rentalCounter, \"Deposit: target does not exist\");\r\n    //transfer eth\r\n    if (msg.value == 0 && rentals[_id].deposit != 0) {\r\n      rentals[_id].deposit = 0;\r\n    } else {\r\n      rentals[_id].renter.transfer(msg.value);\r\n    }\r\n  }\r\n\r\n  function endOfRental(uint _id) public payable {\r\n    //check the mutex for reentrancy\r\n    require(!reEntrancyMutex2, \"Mutex not available\");\r\n    //target rental must exist\r\n    require(_id> 0); //&& _id<= rentalCounter, \"End: target does not exist\");\r\n    //get the target rental\r\n    Rental memory _rental = rentals[_id];\r\n    require(_rental.rentalState == states.RENTED, \"End: state not matching\");\r\n    //return deposit\r\n    require (msg.sender.balance >= _rental.deposit, \"End: not enough funds\");\r\n    //avoid re-entrancy\r\n    reEntrancyMutex2 = true;\r\n    //trasnfer eth\r\n    if (msg.value != 0 && _rental.deposit != 0) {\r\n      _rental.customer.transfer(msg.value);\r\n    }\r\n    //rental ends\r\n    rentals[_id].rentalState = states.ENDED;\r\n    //release the reEntrancyMutex2\r\n    reEntrancyMutex2 = false;\r\n  }\r\n\r\n  function rentalsDeployed() public view returns(uint) {\r\n    return rentalCounter;\r\n  }\r\n\r\n  function withdraw(uint amount) public onlyOwner returns(bool) {\r\n    require(amount <= address(this).balance);\r\n    owner.transfer(amount);\r\n    return true;\r\n  }\r\n\r\n  // Fallback function\r\n  fallback() external payable {\r\n  }\r\n\r\n  receive() external payable {\r\n    require(msg.value > 0);\r\n  }\r\n\r\n}\r\n",
  "sourcePath": "C:/Users/hew580105nl/Desktop/Tirocinio/Source/RestAPI/blockchain/contracts/Rebis.sol",
  "compiler": {
    "name": "solc",
    "version": "0.8.1+commit.df193b15.Emscripten.clang"
  },
  "schemaVersion": "3.3.1",
  "updatedAt": "2021-03-13T15:43:14.762Z",
  "networkType": "ethereum",
  "devdoc": {
    "kind": "dev",
    "methods": {},
    "version": 1
  },
  "userdoc": {
    "kind": "user",
    "methods": {},
    "version": 1
  }
}